:100000000C9462000C948A000C948A000C948A0070
:100010000C948A000C948A000C948A000C948A0038
:100020000C948A000C948A000C948A000C948A0028
:100030000C948A000C948A000C948A000C948A0018
:100040000C9470050C948A000C943E050C941805D1
:100050000C948A000C948A000C948A000C948A00F8
:100060000C948A000C948A000000000024002700F1
:100070002A0000000000250028002B0000000008D6
:10008000000201000003040700000000000000005F
:1000900000000000230026002900040404040404D6
:1000A0000404020202020202030303030303010227
:1000B00004081020408001020408102001020408F6
:1000C0001020FF0511241FBECFEFD8E0DEBFCDBF4B
:1000D00011E0A0E0B1E0E0E1F4E102C005900D9292
:1000E000AA34B107D9F722E0AAE4B1E001C01D9219
:1000F000A031B207E1F710E0C2E6D0E004C02197DA
:10010000FE010E94000AC136D107C9F70E944906C4
:100110000C94060A0C940000AF92BF92CF92DF922B
:10012000EF92FF920F931F93CF93DF936C017B01AC
:100130008B01040F151FEB015E01AE18BF08C0173D
:10014000D10759F06991D601ED91FC910190F081B0
:10015000E02DC6010995892B79F7C501DF91CF9173
:100160001F910F91FF90EF90DF90CF90BF90AF90D5
:100170000895FC01538D448D252F30E0842F90E0AD
:10018000821B930B541710F0CF9608950197089592
:10019000FC01918D828D981761F0A28DAE0FBF2F5B
:1001A000B11D5D968C91928D9F5F9F73928F90E0B1
:1001B00008958FEF9FEF0895FC01918D828D981720
:1001C00031F0828DE80FF11D858D90E008958FEF5D
:1001D0009FEF0895FC01918D228D892F90E0805C26
:1001E0009F4F821B91098F73992708958BE591E0AA
:1001F0000E94EA0021E0892B09F420E0822F089573
:1002000080E090E0892B29F00E94F60081110C9487
:1002100000000895FC01A48DA80FB92FB11DA35AA9
:10022000BF4F2C91848D90E001968F739927848F16
:10023000A689B7892C93A089B1898C918370806439
:100240008C93938D848D981306C00288F389E02DDA
:1002500080818F7D80830895EF92FF920F931F938B
:10026000CF93DF93EC0181E0888F9B8D8C8D981369
:100270001AC0E889F989808185FF15C09FB7F89475
:10028000EE89FF896083E889F989808183708064C1
:1002900080839FBF81E090E0DF91CF911F910F910C
:1002A000FF90EF900895F62E0B8D10E00F5F1F4F1B
:1002B0000F731127E02E8C8D8E110CC00FB607FC2A
:1002C000FACFE889F989808185FFF5CFCE010E94B8
:1002D0000A01F1CFEB8DEC0FFD2FF11DE35AFF4F1B
:1002E000F0829FB7F8940B8FEA89FB898081806246
:1002F000CFCFCF93DF93EC01888D8823B9F0AA8903
:10030000BB89E889F9898C9185FD03C0808186FDD0
:100310000DC00FB607FCF7CF8C9185FFF2CF80811F
:1003200085FFEDCFCE010E940A01E9CFDF91CF9189
:10033000089590E0FC01E458FF4F2491FC01E25540
:10034000FF4F3491FC01E656FF4FE491EE23C9F0D4
:10035000222339F0233001F1A8F4213019F12230A1
:1003600029F1F0E0EE0FFF1FEE58FF4FA591B49179
:100370008FB7F894EC91611126C030953E233C93E1
:100380008FBF08952730A9F02830C9F0243049F7ED
:10039000809180008F7D03C0809180008F77809353
:1003A0008000DFCF84B58F7784BDDBCF84B58F7DB0
:1003B000FBCF8091B0008F778093B000D2CF809137
:1003C000B0008F7DF9CF3E2BDACFCF93DF9390E053
:1003D000FC01E255FF4F249186569F4FFC0184910A
:1003E0008823D1F090E0880F991FFC01E859FF4F56
:1003F000A591B491FC01EE58FF4FC591D4916111C4
:100400000EC09FB7F8948C91E22FE0958E238C93C9
:100410002881E223E8839FBFDF91CF9108958FB7B2
:10042000F894EC91E22BEC938FBFF6CF3FB7F894A2
:1004300080914F0190915001A0915101B0915201D2
:1004400026B5A89B05C02F3F19F00196A11DB11D2F
:100450003FBFBA2FA92F982F8827BC01CD01620F6B
:10046000711D811D911D42E0660F771F881F991F26
:100470004A95D1F708958F929F92AF92BF92CF92F3
:10048000DF92EF92FF920E9416024B015C0188EB13
:10049000C82E8BE0D82EE12CF12C0E941602681990
:1004A00079098A099B09683E734081059105A8F383
:1004B00021E0C21AD108E108F10888EE880E83E035
:1004C000981EA11CB11CC114D104E104F10429F748
:1004D000FF90EF90DF90CF90BF90AF909F908F9064
:1004E0000895089590E080E00895FB0101900020B8
:1004F000E9F73197AF01461B570BDC01ED91FC91F9
:100500000280F381E02D09948F929F92AF92BF9267
:10051000EF92FF920F931F93CF93DF93CDB7DEB788
:10052000A1970FB6F894DEBF0FBECDBF7C01FA01D4
:10053000CB0119A2223008F42AE08E010F5D1F4F73
:10054000822E912CB12CA12CBF01A50194010E94F7
:10055000DE09F901CA016A300CF5605DD8016E93BD
:100560008D01232B242B252B79F790E080E0109729
:1005700021F0BD01C7010E947502A1960FB6F89443
:10058000DEBF0FBECDBFDF91CF911F910F91FF90C6
:10059000EF90BF90AF909F908F900895695CDECFF1
:1005A0002F923F924F925F926F927F928F929F9283
:1005B000AF92BF92CF92DF92EF92FF921F93CF93B1
:1005C000DF93EC016A017B01722EAB019601CB0136
:1005D000B6010E94D9096EE171E0811126C0460181
:1005E0005701E894B7F82FEF3FEF4FE75FE7C501FA
:1005F000B4010E94D90981110CC02FEF3FEF4FE7E2
:100600005FE7C501B4010E940F0862E271E01816AD
:1006100064F02FEF3FEF4FE75FE4C701B6010E94A0
:1006200067091816B4F466E271E0CE01DF91CF914C
:100630001F91FF90EF90DF90CF90BF90AF909F9071
:100640008F907F906F905F904F903F902F900C9481
:1006500075022FEF3FEF4FE75FECC701B6010E9435
:100660000F0887FDE0CF20E030E0A901C701B60107
:100670000E940F08312C212C87FF0DC0E881F981E1
:100680000190F081E02D6DE2CE0109951C01F7FA91
:10069000F094F7F8F09410E060E070E080E09FE301
:1006A000711641F020E030E040E251E40E9414086D
:1006B0001F5FF6CFA70196010E94A3072B013C0103
:1006C0000E9486084B015C012AE0BC01A401CE0116
:1006D0000E9484027C01E20CF31C1123E1F1C501AC
:1006E000B4010E94B5089B01AC01C301B2010E9494
:1006F000A2074B015C01E881F9810190F081E02DB6
:100700006EE2CE010995E80EF91E115020F120E0AD
:1007100030E040E251E4C501B4010E946C092B01B4
:100720003C010E9486084B01B12CA12C2AE0B501A6
:10073000A401CE010E948402E80EF91EC501B40195
:100740000E94B5089B01AC01C301B2010E94A2073F
:100750004B015C01DACFC701DF91CF911F91FF9070
:10076000EF90DF90CF90BF90AF909F908F907F9051
:100770006F905F904F903F902F900895CF93DF93AD
:10078000EC0160E08E810E94990161E08E810E94FF
:10079000990160E08E810E9499018BE891E00197B8
:1007A000F1F7DF91CF910895CF92DF92EF92FF9210
:1007B0000F931F93CF93DF936C017C0187E0E80ECA
:1007C000F11CD0E0C0E0062F10E0B8010C2E02C0F2
:1007D000759567950A94E2F76170F70181917F0141
:1007E0000E9499012196C430D10579F7C601DF91A5
:1007F000CF911F910F91FF90EF90DF90CF900C94CD
:10080000BE03CF92DF92EF92FF920F931F93CF938D
:10081000DF93EC01F62E642F8C810E9499018D816B
:100820008F3F19F060E00E9499010F2D10E08F8535
:1008300084FF25C06E0187E0C80ED11CF12CE12C8D
:10084000B8010E2C02C0759567950A94E2F76170A5
:10085000F60181916F010E949901FFEFEF1AFF0AE3
:1008600088E0E816F10461F7CE01DF91CF911F9186
:100870000F91FF90EF90DF90CF900C94BE03B801E2
:1008800084E0759567958A95E1F7CE010E94D403BF
:100890006F2DCE01DF91CF911F910F91FF90EF90BF
:1008A000DF90CF900C94D40340E0682F88EF91E064
:1008B0000C94010481E00E9454048BE39FE10197B2
:1008C000F1F70895CF93DF93823029F490910702D6
:1008D00098609093070280930B0210920C0280E4C0
:1008E00080930D0280E180930E0280E580930F02D9
:1008F00061E08091FC010E94E5018091FD018F3F44
:1009000019F061E00E94E50161E08091FE010E9422
:10091000E501C8EFD1E09E01285F314080910702D8
:1009200084FD0BC084E090E021962817390744F439
:1009300061E08E810E94E501EECF88E090E0F4CF87
:100940008BE39DE00197F1F760E08091FC010E944C
:10095000990160E08091FE010E9499018091FD0162
:100960008F3F19F060E00E9499018091070284FD99
:1009700034C063E088EF91E00E94D403CBE4D6E476
:10098000CE010197F1F763E088EF91E00E94D40374
:100990002197F1F763E088EF91E00E94D40383E5AB
:1009A00092E00197F1F762E088EF91E00E94D403B2
:1009B0008091070280620E94540484E080930802C0
:1009C0008CE00E9454040E945A0482E08093090241
:1009D00086E0DF91CF910C94540480620E9454040D
:1009E0008BE496E40197F1F78091070280620E9400
:1009F000540483E592E00197F1F780910702806249
:100A00000E945404D5CF90910B02691710F06FEF3C
:100A1000690FE62FF0E0E850FE4F9489890F806857
:100A20000C94540441E00E94010481E090E0089598
:100A30001F920F920FB60F9211242F933F934F9353
:100A40005F936F937F938F939F93AF93BF93EF9336
:100A5000FF938BE591E00E940A01FF91EF91BF9116
:100A6000AF919F918F917F916F915F914F913F9146
:100A70002F910F900FBE0F901F9018951F920F92FD
:100A80000FB60F9211242F938F939F93EF93FF93A1
:100A9000E0916B01F0916C018081E0917101F09126
:100AA000720182FD1BC09081809174018F5F8F73F2
:100AB00020917501821741F0E0917401F0E0E55A50
:100AC000FE4F958F80937401FF91EF919F918F91CD
:100AD0002F910F900FBE0F901F9018958081F4CF2B
:100AE0001F920F920FB60F9211242F933F938F9363
:100AF0009F93AF93BF9380914B0190914C01A09134
:100B00004D01B0914E0130914A0123E0230F2D3762
:100B100058F50196A11DB11D20934A0180934B0108
:100B200090934C01A0934D01B0934E0180914F01E1
:100B300090915001A0915101B09152010196A11DD7
:100B4000B11D80934F0190935001A0935101B09338
:100B50005201BF91AF919F918F913F912F910F9033
:100B60000FBE0F901F90189526E8230F0296A11D27
:100B7000B11DD2CFCF92DF92EF92FF920F931F93CE
:100B8000E82FF92F05C0015011092109310961F140
:100B9000908196239417B9F305C0015011092109DA
:100BA000310911F1908196239413F7CFC12CD12CE8
:100BB000E12CF12C0AC08FEFC81AD80AE80AF80A0B
:100BC0000C151D052E053F0579F0808186238417BD
:100BD00091F36C2D7D2D8E2D9F2D1F910F91FF90E8
:100BE000EF90DF90CF90089560E070E080E090E0BB
:100BF0001F910F91FF90EF90DF90CF900895EBE55C
:100C0000F1E01382128288EE93E0A0E0B0E08483EA
:100C10009583A683B78384E091E09183808385ECFC
:100C200090E09587848784EC90E09787868780ECB6
:100C300090E0918B808B81EC90E0938B828B82ECA7
:100C400090E0958B848B86EC90E0978B868B118E51
:100C5000128E138E148EE8EFF1E01382128286E179
:100C600091E09183808387E084838FEF858388E0A0
:100C7000868389E087838AE080878BE081878CE0A8
:100C800082871386148615861686178681E00C9453
:100C90006204789484B5826084BD84B5816084BD2B
:100CA00085B5826085BD85B5816085BD80916E000A
:100CB000816080936E00109281008091810082603B
:100CC0008093810080918100816080938100809178
:100CD00080008160809380008091B1008460809367
:100CE000B1008091B00081608093B00080917A0063
:100CF000846080937A0080917A00826080937A0089
:100D000080917A00816080937A0080917A00806877
:100D100080937A001092C100E0916B01F0916C0118
:100D200082E08083E0916701F09168011082E09198
:100D30006901F0916A018FEC808310927301E09158
:100D40006F01F091700186E08083E0916D01F09178
:100D50006E01808180618083E0916D01F0916E0170
:100D6000808188608083E0916D01F0916E018081C7
:100D700080688083E0916D01F0916E0180818F7DAC
:100D8000808382E00E9462046AE271E088EF91E071
:100D90000E9475020E943B020E945A04C3E0D0E008
:100DA00093E2E92EF12C21EBC22E20E0D22E3DE978
:100DB000A32E30E0B32E40E0842E40E0942E61E07C
:100DC00082E00E94E50160E082E00E949901CE018C
:100DD0000197F1F761E082E00E949901C701019754
:100DE000F1F760E082E00E94990160E083E00E94F8
:100DF000E501F6016491F5018491E82FF0E0EE0F32
:100E0000FF1FE057FF4F8591949100E412E42FE01B
:100E100030E0462F0E94BA056115710581059105E4
:100E200029F06F5F7F4F8F4F9F4F9F700E94B708D1
:100E300025EF30E14DE85CE30E946C0960935701B7
:100E4000709358018093590190935A012CE53FE823
:100E500042E250E40E941408AB01BC0140935301EC
:100E600050935401609355017093560121E08BE536
:100E700091E00E94D0026BE371E08BE591E00E946B
:100E8000750240915701509158016091590170913C
:100E90005A0121E08BE591E00E94D0026DE371E000
:100EA0008BE591E00E94750260E080E00E940305FE
:100EB00060E471E088EF91E00E94750260E084E0F8
:100EC0000E94030560E08CE00E94030567E471E086
:100ED00088EF91E00E94750261E081E00E940305C5
:100EE0004091530150915401609155017091560108
:100EF00021E088EF91E00E94D00261E08BE00E9447
:100F0000030540915701509158016091590170912A
:100F10005A0121E088EF91E00E94D00261E08EE06A
:100F20000E9403050E943B020E945A04811491040E
:100F300009F445CF0E94F600882309F440CF0E94AF
:100F400000003DCF5058BB27AA270E94BA070C9437
:100F50002D090E941F0938F00E94260920F039F45B
:100F60009F3F19F426F40C941C090EF4E095E7FB5E
:100F70000C941609E92F0E943E0958F3BA1762072C
:100F800073078407950720F079F4A6F50C9460099F
:100F90000EF4E0950B2EBA2FA02D0B01B901900194
:100FA0000C01CA01A0011124FF27591B99F0593FD8
:100FB00050F4503E68F11A16F040A22F232F342F20
:100FC0004427585FF3CF469537952795A795F0406E
:100FD0005395C9F77EF41F16BA0B620B730B840B83
:100FE000BAF09150A1F0FF0FBB1F661F771F881F3B
:100FF000C2F70EC0BA0F621F731F841F48F4879593
:1010000077956795B795F7959E3F08F0B0CF939584
:10101000880F08F09927EE0F9795879508950E94FD
:10102000F20808F481E008950E9428080C942D0924
:101030000E94260958F00E941F0940F029F45F3FE2
:1010400029F00C94160951110C9461090C941C0997
:101050000E943E0968F39923B1F3552391F3951B40
:10106000550BBB27AA2762177307840738F09F5FC9
:101070005F4F220F331F441FAA1FA9F335D00E2E36
:101080003AF0E0E832D091505040E695001CCAF7A3
:101090002BD0FE2F29D0660F771F881FBB1F261766
:1010A00037074807AB07B0E809F0BB0B802DBF013D
:1010B000FF2793585F4F3AF09E3F510578F00C940C
:1010C00016090C9461095F3FE4F3983ED4F38695CA
:1010D00077956795B795F7959F5FC9F7880F911D2D
:1010E0009695879597F90895E1E0660F771F881F19
:1010F000BB1F621773078407BA0720F0621B730BCC
:10110000840BBA0BEE1F88F7E09508950E944609FC
:1011100088F09F5798F0B92F9927B751B0F0E1F0B8
:10112000660F771F881F991F1AF0BA95C9F714C068
:10113000B13091F00E946009B1E008950C9460090B
:10114000672F782F8827B85F39F0B93FCCF38695A1
:1011500077956795B395D9F73EF4909580957095FE
:1011600061957F4F8F4F9F4F0895E89409C097FB7B
:101170003EF490958095709561957F4F8F4F9F4F6E
:101180009923A9F0F92F96E9BB279395F6958795B2
:1011900077956795B795F111F8CFFAF4BB0F11F475
:1011A00060FF1BC06F5F7F4F8F4F9F4F16C088231C
:1011B00011F096E911C0772321F09EE8872F762F52
:1011C00005C0662371F096E8862F70E060E02AF093
:1011D0009A95660F771F881FDAF7880F969587957F
:1011E00097F90895990F0008550FAA0BE0E8FEEF54
:1011F00016161706E807F907C0F012161306E407DB
:10120000F50798F0621B730B840B950B39F40A26D3
:1012100061F0232B242B252B21F408950A2609F4B1
:10122000A140A6958FEF811D811D089597F99F67B5
:1012300080E870E060E008959FEF80EC089500245E
:101240000A941616170618060906089500240A942B
:1012500012161306140605060895092E0394000CB1
:1012600011F4882352F0BB0F40F4BF2B11F460FF40
:1012700004C06F5F7F4F8F4F9F4F089557FD905869
:10128000440F551F59F05F3F71F04795880F97FB4A
:10129000991F61F09F3F79F0879508951216130604
:1012A0001406551FF2CF4695F1DF08C01616170633
:1012B0001806991FF1CF8695710561050894089568
:1012C000E894BB2766277727CB0197F908950E94FA
:1012D000F20808F48FEF08950E947F090C942D09FD
:1012E0000E941F0938F00E94260920F0952311F072
:1012F0000C9416090C941C0911240C9461090E9489
:101300003E0970F3959FC1F3950F50E0551F629F02
:10131000F001729FBB27F00DB11D639FAA27F00D4E
:10132000B11DAA1F649F6627B00DA11D661F829F75
:101330002227B00DA11D621F739FB00DA11D621F5A
:10134000839FA00D611D221F749F3327A00D611D77
:10135000231F849F600D211D822F762F6A2F112459
:101360009F5750409AF0F1F088234AF0EE0FFF1F8C
:10137000BB1F661F771F881F91505040A9F79E3FE3
:10138000510580F00C9416090C9461095F3FE4F359
:10139000983ED4F3869577956795B795F795E79539
:1013A0009F5FC1F7FE2B880F911D9695879597F942
:1013B00008950E94F208880B990B0895A1E21A2E55
:1013C000AA1BBB1BFD010DC0AA1FBB1FEE1FFF1FE9
:1013D000A217B307E407F50720F0A21BB30BE40B39
:1013E000F50B661F771F881F991F1A9469F7609580
:1013F0007095809590959B01AC01BD01CF0108953A
:10140000EE0FFF1F0590F491E02D0994F894FFCFA3
:10141000000000002C018C00B9007901EA00C8002E
:10142000DC000000000012058C00720271026E6187
:101430006E00696E66006F7666002D2D3E20446951
:101440007374616E6365203C2D2D0009000D0A0048
:0A145000496E6368657300636D0068
:00000001FF
